:020000040800F2
:1000000000000320B90400080905000809050008DC
:10001000090500080905000809050008000000009E
:1000200000000000000000000000000009050008BA
:10003000090500080000000009050008090500087E
:100040000905000809050008090500080905000858
:100050000905000809050008090500080905000848
:100060000905000809050008090500080905000838
:100070000905000809050008090500080905000828
:100080000905000809050008090500080905000818
:100090000905000809050008090500080905000808
:1000A00009050008090500080905000809050008F8
:1000B00009050008090500080905000809050008E8
:1000C00009050008090500080905000809050008D8
:1000D00009050008090500080905000809050008C8
:1000E00009050008090500080905000809050008B8
:1000F00009050008090500080905000809050008A8
:100100000905000809050008090500080905000897
:100110000905000809050008090500080905000887
:100120000905000809050008090500080905000877
:100130000905000809050008090500080905000867
:100140000905000809050008090500080905000857
:100150000905000809050008090500080905000847
:100160000905000809050008090500080905000837
:10017000090500080905000809050008000000003D
:100180000905000809050008090500080905000817
:100190000905000809050008090500080905000807
:0C01A00009050008090500080905000811
:1001AC0010B5054C237833B9044B13B10448AFF3A5
:1001BC0000800123237010BD04000020000000000B
:1001CC005405000808B5034B1BB103490348AFF3B2
:1001DC00008008BD00000000080000205405000845
:1001EC00034AD2F8883043F47003C2F88830704761
:1001FC0000ED00E00138052804D8DFE800F01E0609
:10020C000B10151A002002461BE04FF000504FF463
:10021C00005216E04FF080504FF4805211E04FF036
:10022C0080604FF480620CE04FF000604FF400628D
:10023C0007E04FF48030012203E04FF000404FF410
:10024C000042012904D0054A936903439361704726
:10025C0002498B6913438B61704700BF0004024055
:10026C0008B52A4B1B7813F0010F31D00121084639
:10027C00FFF7C0FF254B1B7813F0020F2DD0012187
:10028C000220FFF7B7FF214B1B7813F0040F29D086
:10029C0001210320FFF7AEFF1C4B1B7813F0080F56
:1002AC0025D001210420FFF7A5FF184B1B7813F074
:1002BC00100F21D001210520FFF79CFF134B1B7859
:1002CC0013F0200F1DD001210620FFF793FF08BD6E
:1002DC0000210120FFF78EFFCCE700210220FFF761
:1002EC0089FFD0E700210320FFF784FFD4E700212A
:1002FC000420FFF77FFFD8E700210520FFF77AFFE6
:10030C00DCE700210620FFF775FFE0E70200002084
:10031C0008B5002200E00132114B1B7893420DDD31
:10032C0010490B785B00DBB20B7013F0400FF2D06E
:10033C0023F0410343F001030B70ECE7062B02D0D2
:10034C00FFF78EFF08BD074B1B781BB9054B3F22EF
:10035C001A70F5E73F2BF3D1024B00221A70EFE72E
:10036C00010000200200002008B500F075F84AE0FA
:10037C00334B00221A70324B1B78012B0CD0314BB3
:10038C001B6913F4007F37D12F4B1B78022B36D00F
:10039C002D4B01221A7032E0294B02221A702B4B82
:1003AC0019780131C9B21970294B1B7813F0010F60
:1003BC0013D05B00DBB2264A137013F0400FF3D05E
:1003CC007E2B05D023F0410343F001031370EBE7C0
:1003DC0003F0BE031E4A1370E6E743F001031C4A08
:1003EC0013701C4B01221A700629C8D91346184ADF
:1003FC001370164A1370C2E7134B00221A70124B7B
:10040C001B78012B0CD00F4B1B6913F4807FAFD1E1
:10041C000B4B1B78022BAED0094B01221A70AAE7AA
:10042C00094B02221A700B4B1B782BB1094B002283
:10043C001A70FFF715FFE6E7FFF76AFFE3E700BF67
:10044C0021000020000802402000002001000020B4
:10045C0002000020000000200F4A136B43F006033B
:10046C0013630E4B1A681A601A681A60DA6842F441
:10047C00A022DA60A3F580631A6809490A431A605E
:10048C005868084A02405A609A680A439A60D968C8
:10049C00054A0A40DA607047003802400008024002
:1004AC00014050457E4FAFFFFEBFAFBADFF834D0EE
:1004BC000D480E490E4A002302E0D458C4500433B0
:1004CC00C4188C42F9D30B4A0B4C002301E0136087
:1004DC000432A242FBD3FFF783FE00F011F8FFF7C2
:1004EC0043FF7047000003200000002004000020A0
:1004FC00740500080400002024000020FEE7000022
:10050C0070B50D4D0D4C641BA4100026A64209D1EC
:10051C000B4D0C4C00F018F8641BA4100026A642DE
:10052C0005D170BD55F8043B98470136EEE755F8F8
:10053C00043B98470136F2E76C0500086C0500088F
:10054C006C05000870050008F8B500BFF8BC08BCC5
:10055C009E467047F8B500BFF8BC08BC9E46704775
:04056C00D1010008B1
:04057000AD010008D1
:040574000101010080
:04000005080004B932
:00000001FF
