:020000040800F2
:1000000000000320150500086505000865050008C7
:10001000650500086505000865050008000000008A
:10002000000000000000000000000000650500085E
:10003000650500080000000065050008650500086A
:1000400065050008650500086505000865050008E8
:1000500065050008650500086505000865050008D8
:1000600065050008650500086505000865050008C8
:1000700065050008650500086505000865050008B8
:1000800065050008650500086505000865050008A8
:100090006505000865050008650500086505000898
:1000A0006505000865050008650500086505000888
:1000B0006505000865050008650500086505000878
:1000C0006505000865050008650500086505000868
:1000D0006505000865050008650500086505000858
:1000E0006505000865050008650500086505000848
:1000F0006505000865050008650500086505000838
:100100006505000865050008650500086505000827
:100110006505000865050008650500086505000817
:100120006505000865050008650500086505000807
:1001300065050008650500086505000865050008F7
:1001400065050008650500086505000865050008E7
:1001500065050008650500086505000865050008D7
:1001600065050008650500086505000865050008C7
:100170006505000865050008650500080000000029
:1001800065050008650500086505000865050008A7
:100190006505000865050008650500086505000897
:0C01A000650500086505000865050008FD
:1001AC0010B5054C237833B9044B13B10448AFF3A5
:1001BC0000800123237010BD04000020000000000B
:1001CC00B005000808B5034B1BB103490348AFF356
:1001DC00008008BD0000000008000020B0050008E9
:1001EC00034AD2F8883043F47003C2F88830704761
:1001FC0000ED00E0431E052B04D8DFE803F01E06DB
:10020C000B10151A002213461BE04FF000524FF44E
:10021C00005316E04FF080524FF4805311E04FF032
:10022C0080624FF480630CE04FF000624FF4006387
:10023C0007E04FF48032012303E04FF000424FF40B
:10024C000043012906D0012813D00E498B691343B2
:10025C008B617047012804D00A498A6913438B616A
:10026C007047094AD2F8183443F40043C2F81834E2
:10027C007047054AD2F8183443F00043C2F81834DA
:10028C00704700BF000402400000024008B52A4B32
:10029C001B7813F0010F31D001210846FFF7AAFF9C
:1002AC00254B1B7813F0020F2DD001210220FFF7F4
:1002BC00A1FF214B1B7813F0040F29D0012103203F
:1002CC00FFF798FF1C4B1B7813F0080F25D001216A
:1002DC000420FFF78FFF184B1B7813F0100F21D061
:1002EC0001210520FFF786FF134B1B7813F0200F1D
:1002FC001DD001210620FFF77DFF08BD0021012044
:10030C00FFF778FFCCE700210220FFF773FFD0E75F
:10031C0000210320FFF76EFFD4E700210420FFF734
:10032C0069FFD8E700210520FFF764FFDCE7002117
:10033C000620FFF75FFFE0E70200002008B500226F
:10034C0000E00132114B1B7893420DDD10490B7804
:10035C005B00DBB20B7013F0400FF2D023F04103C3
:10036C0043F001030B70ECE7062B02D0FFF78EFF76
:10037C0008BD074B1B781BB9054B3F221A70F5E7DC
:10038C003F2BF3D1024B00221A70EFE70100002043
:10039C000200002008B500F075F84AE0334B00224B
:1003AC001A70324B1B78012B0CD0314B1B6913F498
:1003BC00007F37D12F4B1B78022B36D02D4B0122CF
:1003CC001A7032E0294B02221A702B4B197801312A
:1003DC00C9B21970294B1B7813F0010F13D05B00B5
:1003EC00DBB2264A137013F0400FF3D07E2B05D0EE
:1003FC0023F0410343F001031370EBE703F0BE035A
:10040C001E4A1370E6E743F001031C4A13701C4BA1
:10041C0001221A700629C8D91346184A1370164AB5
:10042C001370C2E7134B00221A70124B1B78012B6E
:10043C000CD00F4B1B6913F4807FAFD10B4B1B7887
:10044C00022BAED0094B01221A70AAE7094B0222EB
:10045C001A700B4B1B782BB1094B00221A70FFF74B
:10046C0015FFE6E7FFF76AFFE3E700BF2100002076
:10047C0000080240200000200100002002000020A3
:10048C00000000201D4A136B43F0060313631C4B42
:10049C001A681A601A681A60DA6842F4A022DA60E4
:1004AC00A3F50063D3F8002442F08042C3F8002483
:1004BC00D3F8082442F08042C3F80824D3F80C2463
:1004CC0042F08042C3F80C2403F580631A6842F0B2
:1004DC00AA6242F001021A6059680A4A0A405A603C
:1004EC009A6842F0AA6242F001029A60DA6822F03D
:1004FC00AA6222F00102DA60704700BF00380240A5
:10050C0000080240FECFAFFFDFF834D00D480E4993
:10051C000E4A002302E0D458C4500433C4188C4251
:10052C00F9D30B4A0B4C002301E013600432A242B6
:10053C00FBD3FFF755FE00F011F8FFF72BFF7047C8
:10054C00000003200000002004000020D00500085B
:10055C000400002024000020FEE7000070B50D4DC3
:10056C000D4C641BA4100026A64209D10B4D0C4C5B
:10057C0000F018F8641BA4100026A64205D170BD2B
:10058C0055F8043B98470136EEE755F8043B98477D
:10059C000136F2E7C8050008C8050008C8050008C0
:1005AC00CC050008F8B500BFF8BC08BC9E467047E7
:0C05BC00F8B500BFF8BC08BC9E467047B4
:0405C800D101000855
:0405CC00AD01000875
:0405D0000101010024
:0400000508000515D5
:00000001FF
